:400000000080002011000000110700001107000010B500F085FBC04610B512221E4B1A60302001F005FF1D4A1D4B1A60BC2292011C4B1A601C4B1D4A1A60FE2212021C4907
:400040000A601C4919601C490A601C4A1A60882189011B4A11601B4A1A60802212061A4B1A608022D202194B1A604322184B1A60033A184B1A600132174B1A600132174BB4
:400080001A601749082001F01DFE082001F0FEFD0022144B1A6010BD300010400600008004010B400C0301400000014043FF00800003014040FF00800403014041FF0080A2
:4000C0000803014042FF008008010B4000010B402C0101401C0101401801014010010140992200000C020B4010B572B600240FE035486200131959000B00411889881A5A7A
:40010000C31858880004104300F0C8FA0134E4B2012CEDD92C4801000C31343000F0A4FAEE221202294B1A60294A2A4B1A6099231B04294A13608021C904284A1160284AA1
:400140001360284A1360284A13608A21C903274A1160274A136027490B783C22934314221343DBB20B70244A117816230B43DBB21370224A224B1A60224A234B1A603022C3
:40018000224B1A60224A234B1A607822224B1A60DB229202214B1A604422214B1A60223A204B1A60204A214B1A600222204B1A60013A204B1A6002321F4B1A60FFF72CFFCD
:4001C00000F092FA10BDC0469C3C000000030240990030000005024000500F4008500F4020500F4040500F4050500F4058500F4070500F4001700F4000700F406D0B0000B3
:4002000008000440B66D1B000802044000030440806D03000803044000040440080404401804044000050440310003000805044018050440000704401807044010B5064C74
:400240002378002B07D1054B002B02D0044800E000BF0123237010BD4003002000000000E4370000084B10B5002B03D00749084800E000BF07480368002B00D110BD064B7D
:40028000002BFBD09847F9E70000000044030020E4370000C00000200000000062B6704710B50349034802F0EDFEFFF7F7FF10BDC4000020A404002072B67047034B5868CD
:4002C000C005431E9841C0B27047C04600ED00E000228B5E002B02D08E2B04D007E08E230B80002300E00123002BF8D103E000230B80002000E001207047C046C368002274
:400300001A7000207047C046002070474368612908D8054A4900885C587451184A789A74002000E0FF2070470838000070B58469C569144B9B78012B23D1237C002B0ED059
:40034000002323740121686803F066F80021A86803F062F8617C286803F05EF80DE0012323740021686803F057F80121A86803F053F8A17C286803F04FF80521200002F0E2
:40038000B5FB70BD4809002010B504004368586902F028FCE36801221A70002010BDC04610B5040080694423E25C0273E35C4373052102F09BFB23696361054B23610549D8
:4003C000200002F033FC01224523E25410BDC0462D030000D102000070B504000369436100250561816A02F045FC4523E55470BDC36800221A7000207047C04600207047EA
:4004000070B544688568286802F0F6FF2070686802F0F2FF4000237818182070A86802F0EBFF8000237818182070E86802F0E4FFC00023781818C0B22070014B185C70BD43
:40044000E038000070B5050084680021206802F0B3FF0021606802F0AFFF0021A06802F0ABFFE068002102F0A7FFEB6801221A70002070BD00228B5E002B02D07B2B04D0E3
:4004800007E07B230B80002300E00123002BF8D103E000230B80002000E001207047C04670B58469C56903694361114B0361114902F0BCFB2868002102F07EFF0021A06B43
:4004C00002F07AFF0021206C02F076FF0021E06B02F072FF1E21E06B02F09EFF20001030054902F003FB01223423E25470BDC0463D05000075040000FC08000070B504002C
:400500000369436100250561816A02F0B3FB4523E55470BD10B58369002A05D001228A40196B0A431A6304E001228A40196B91431963196B986B02F06FFF10BD10B50400BA
:40054000154B9B78052B04D101220021FFF7E2FF03E000220021FFF7DDFF0F4B9B78072B05D1012201212000FFF7D4FF04E0002201212000FFF7CEFF074B9B780B2B05D1D1
:40058000012202212000FFF7C5FF04E0002202212000FFF7BFFF10BD4809002010B562B600F034F8002010BD10B501F09BFD0249002001F0A7FD10BD1D2B000010B50820AA
:4005C00001F05AFE10BDC04610B5012001F0EEFD10BDC04610B5012001F006FE10BDC04610B5084B9B78052B08D1074C200002F003FF41424141200002F00EFFFA20800043
:4006000010BDC046480900200039000010B59620C00001F069FBFFF743FE02F051FB104C20001030002102F0C7FE20002030002102F0C2FE20003030002102F0BDFE2000F3
:400640004030002102F0B8FE064C200002F0CAFA2000483002F0C6FA02F050FB10BDC04600390000CC000020F0B50025002711E0BB00C658F3B2FF22964308E06A008A184C
:400680001478A419527822700135013BDBB2002BF4D10137072FEBD9F0BDC04610B50A00002103F096F810BD0C4B1B68002803D080221206134301E05B005B08074A13603B
:4006C000074B1B68002803D080229204134301E0044A1340024A13607047C04680033A4008010B40FFFFFFFD10B50323054A1360054A13600022054B1A600120FFF7D4FF0E
:4007000010BDC0463000304030003140000E3F4010B503F029F803680C2B00D1FEE7FEE770B50F4E0F4D13E029686B68AC68002202E001C901C30432A242FAD1E8680022D0
:4007400002E0002102C304328242FAD11035013E002EE9D103F00EF8FFF720FFFEE7C04601000000343F000010B50E4A136801218B43136000230AE0032B03D89A000A4915
:40078000505800E009489900094A885001332F2BF2D9FFF7A9FC034A116801230B43136010BDC0460000104000000000110700000000002010B5084B1B78002B06D100F005
:4007C00049F900F07FF90122034B1A7000F04AF800F090FC10BDC046D103002010B5FFF7E9FF041E02D100F0DBFB0400002C02D100F008FB0400002C03D100F0C5FA0028B0
:40080000FBD100F011FA00F0A9F9200010BDC0460022024B1A7000207047C046D103002070B50E4E0024002513E06B0904339B000B4A9B581F222A40D340DB0707D53000AB
:4008400000F062F804003100280000F0D7F820360135022DE9D9200070BDC046283D0000BC08002070B5002309E012491A1D92008818002444600120404250500133002B9A
:40088000F3D00D4C032310E06668A27E094B5B1900211976012A06D12069002803D0F179228B02F096FF20342B005D1E002BEBD170BDC046BC080020283D000010B582B028
:4008C000040008001300628869460A80228A01F0FFFE6B461B8863806B469B7823716B46DB7863716B461B79A37102B010BDC04630B50B884A889C1A0025CD800079844226
:4009000000DDCC8030BDC046F0B55F4656464D46E0B482B08246837E062B02D10122934601E0002293465246D26891465246946856680093D76900250023019321E0009A72
:400940002100484600F09CF9318A20883A0001F063FF2A0039003000FFF7B0FF0C37009A2100300000F09AF9019021003000FFF7BFFF0A345B46002B02D106339C46E144B7
:40098000013553461B8B9D42D9D3019802B01CBC91469A46A346F0BDF0B50A8B8D684F680B69012125E00C00044003D17E88BA79B21802E07A88BE79921BEE88B24201D319
:4009C000002200E00A00A24202D01E78013E1E70A24202D01C78002C07D188431043002A01D1FA7900E001221A7049000A3501336246541EA446002AD5D1F0BD70B5040004
:400A00008A7E134B1B181D7E012A04D12800FFF7C3FF050002E0002001F042F90C4B1B191D7663091F2214401E3AA240002D07D104339B000649CB1859689143596006E0D9
:400A400004339B000249CB1859680A435A6070BDBC08002010B50B4C7C220021200002F0B8FE094B238080231B016380074BA3800223A377200020303622054902F0A0FE07
:400A800010BDC046BC080020448CFFFF70170000F03C000002280DD84301084AD31850331B888B4208D9064B1818037E01208840184002E0002000E000207047F03C000072
:400AC000BC0800200023024AD380024A13607047BC0800201C040020FF231940062902D08318002119715300195AC31859808218002313727047C04670B506000D0001231F
:400B000005E0220029003000FFF7E6FF23005C1E002BF6D170BDC04610B54001054B1B188A00511848009A6894466044997EFFF7E3FF10BD283D000070B505004301064A95
:400B4000D3181B8B04E021002800FFF7E5FF23005C1E002BF7D170BD283D000010B5032303E02000FFF7E8FF23005C1E002BF8D110BDC046F0B501230EE0FF231340062B2F
:400B800009D065006F5A2E1973001F526F5AC3185F806D5A9D8023005C1E002BEDD1F0BDF8B54F464646C0B405004301174AD3185A6891461B8B21E06A01144B9B18A20033
:400BC000121957009A6894466744DE683000610009198A00D969884690449A7E062A03D063001B19580030183900FFF7C3FF4B46198A3888424601F0E3FD23005C1E002B2D
:400C0000DAD10CBC90469946F8BDC046283D000010B5032303E02000FFF7C2FF23005C1E002BF8D110BDC04610B5FFF7F1FF10BDF0B5012420E0FF241440062C1BD05C0031
:400C4000665AE7187D002D5A7619E7187D0045196F88BC466644AF88F619B6086746AF80E7187F003F5A6F80655AAC46E7187D0067462F520E531C00631E002CDBD1F0BDE1
:400C800010B5FFF7D5FF10BD9840504380235B009A1A51434018000A7047C046F0B5474680B482B007000E00019201233EE06300985BF3185988884205D3431A32190025D5
:400CC0001572012201E00B1A0022002A11D17D79AB420ED933191B7A3A7A934205D3220001993000FFF7F8FE1FE03219013313721BE03D79AB4204D97D79AB4215D2002AC0
:400D000013D1FF23019A1340062B0ED00902331998461B79194308230A22FFF7B5FF020A6300F3185A804346187123005C1E002BBDD1002002B004BC9046F0BD0548036801
:400D40000F2293431900044B1B7813400B4303607047C04600FF284062F2FF0F10B5FFF7EDFF10BD40230B737047C04610B5044A1168044B0B40136000F066FB10BDC04618
:400D800000040240FFF0FFFF024BDB68802018407047C046BC08002010B50E4BDB68DB030DD402280DD8430904339B00094A9B581F220240D340DB0705D4012404E01124B5
:400DC00002E0012400E00024002C01D100F04EFB200010BDBC08002010B5084BDB68DB0307D4074B1B78012B05D100F0C3FA002003E0112001E00120404210BDBC080020CF
:400E00002004002010B50F4BDB681B0618D400240120404211E02000FFF7BEFF00280BD1012C03D80122084B5A7002E00022064B5A70FFF7D1FF04E00134022CEBD900E058
:400E4000112010BDBC0800202004002010B504000C4B1B78834214D0012B01D1FFF786FF012C05D100F0ACF90122064B1A7008E0022C06D0042C04D0032C02D00022014B82
:400E80001A7010BD2004002030B500200D4B16E019680A681C69A2430A605C6822689D7E0721A9408A4311000622AA400A43226099680A685C69A2430A601C330130022813
:400EC000E6D930BD883D000010B51B4A93780133DBB293709078C0B2FFF75EFF041E09D1154B9B78022B02D10022134B5A70FFF773FF1EE0104B9B78022B11D10F4B1A8922
:400F000001321A81DA6880218A43DA60DA681202120ADA60DA6804061443DC60002408E0064AD3681B021B0AD360D16803060B43D360002CC9D110BD20040020BC080020E4
:400F4000074A084B1A6001380002074B1860054B1B68002BFBDB054A024B1A607047C04640000040000001400003014040FF0080074A084B1A6001380002074B1860054B70
:400F80001B68002BFBDB054A024B1A607047C04641000040000001400403014041FF008070B58CB0FA239B0002AA1380C833538093803F4B93810025002640E06B013D4ADB
:400FC000D3185C680C2323800023237302AB9889394902F03DFB60815521280000F014FB23000A330693354B1B7802AA1376344B1888FA239B005843324902F029FB02ABCE
:40100000D881180001F0B4FA2F4B984203D9062601E05B00638102AB998963892B4A5A439142F6D8002BF4D0294A927F5B00DBB29A4200D36281AA0009ABD0500135022DE6
:40104000BCD900241EE063011A4AD3185D685521200000F0D9FA06432B000A330693A20009ABD35801930493144B1B7802AA1376EB89D3802B0010330793100001F0B2FA4F
:4010800028800134022CDED900240CE06301094AD31859682000FFF765FE5521200000F0B3FA06430134022CF0D930000CB070BDC05D0000283D0000DC0500007C020020C0
:4010C0007E020020FF0F0000870D010038310000BC08002010B5002407E06301044AD31859682000FFF73EFE0134022CF5D910BD283D000010B5FFF731FEFFF7EBFFFFF7BD
:40110000C3FE0120FFF7A2FE002010BD70B5002512E06B010A4A9E58002406E0E3001B1B9800301800F070F901346B01044AD3181B7E9C42F2D30135022DEAD970BDC0468B
:40114000283D0000054A13689B0A9B0213601368802189000B4313607047C0460800284070B50E001500038801249C40013CA3001B195800642102F06BFA013083199C4231
:4011800000D22300B04201D8301A00E00020A84203D8AB4203D2062002E0062000E0002070BDC04610B5054AC02314689C43204310600800FFF7DCFE10BDC04674020020D7
:4011C00010B5FFF7A3FFFFF7BDFF074A1168074B0B40C021C9000B431360054B1B68054A1343054A136010BD00040240FFF0FFFF740200202008E8810400284010B5093043
:40120000040001F0A6F8064A1368FF218B4305490978615C0B43136001F09FF810BDC04608002840DC3D000010B5094B1B785B01084AD3185B685989187B431FDBB2012B99
:4012400002D8490800D10131FFF7ACFF10BDC04622040020283D0000028801239340013B1B04014A536070477402002070B501F070F804001E4B1B681E4A13431E4A1360F3
:401280001E4B987FFFF75CFE1D4A1E4B1A601D4B1B68002BFBDB1C4A1A4B1A601B4E3568572001F04DF81A4B2B401A4A13433360E1231B0200E0013B174A1268120701D40D
:4012C000002BF8D1114B1D60094D144B2A681343094A1360122000F0D9FCE72001F030F86A680F4B1A60200001F037F870BDC046740200202008E88104002840BC08002017
:40130000410000400000014041FF00800800284000E8FFBFF0060040100028402018E8810C00284010B5044AD36804490B43D360FFF79CFF10BDC046BC080020800001006D
:4013400070B50400857E067E01F003F823681B680F22B24093431A000423B3401343666832680721A9408A4332602268136000F0F4FF70BD70B5154E3378154D5B01EB1867
:401380005868144C0023237033785B01EB1899682378DBB29A00D3185A008A180E4B1A60FFF72CFF33785B0158592278D2B2D3009A1A9300C018094B1860FFF7C1FF084815
:4013C00000F056FBFFF7AEFF70BDC04622040020283D0000230400203C090020380900206524000010B54001054BC058CB00591A8B00C018034B1860FFF7A2FF10BDC04656
:40140000283D00003809002070B50400007EA57E21680B680F22824093430B6000F099FF61680B680722AA4093431A000623AB4013430B6000F091FFA1680B68607E012253
:40144000824093430B6070BD10B5064B1B78012B06D1054B1868FFF7D7FF0022014B1A7010BDC046240400203809002070B5104E4301F3185D68C0B20E4C20700120FFF776
:40148000E5FCFFF7E1FF23785B019A590A4B1A600A4BDA687F218A43DA602178DA680A43DA602800FFF7D8FEFFF7BEFE70BDC046283D00002204002038090020BC08002053
:4014C00070B54301134AD3185D68C9B2124C217099682378DBB29A00D3185A008A180F4B1A60FFF7C3FF2800FFF788FE2378DBB20B49DA00D31A98000B689C4660440860F6
:40150000FFF71EFF0122074B1A70074800F0B0FA70BDC046283D0000230400203C090020380900202404002021240000F0B5474680B482B007000E0090462B4A13785B019F
:401540002A49CB185B680193002333701078C0B2274B1978C9B2FFF7B3FF002480256D00BC4202D23378AB4333706D0833782B4333700198FFF742FEFFF7D4FEE1231B02AB
:4015800000E0013B1B4AD268120601D5002BF8D1194B1B681C88002DE2D1134B1B785B01124A9858124B1A78D2B2D3009A1A9300C018124B1860FFF727FF0022104B1A702D
:4015C000220039000198FFF7CBFD43461A7833789A4204D2424613700A4A1372548102B004BC9046F0BDC04622040020283D000023040020BC0800203C0900203809002071
:401600002404002074020020F0B585B0070043011D4AD3185D68012603AB1E702B883000984001384843642102F012F80190FAB2164B1A70164800F01BFA2C000934154BD9
:401640001E725E810022144B1A7000260AE003AA21000198FFF76AFF06430F4A13780133DBB213707B01084AD318DA7E0A4B1B78DBB29A42EBD803AB1B786B720022064BF3
:401680001A70300005B0F0BD283D00002204002021240000740200202304002004490A68D2B208239A43C000184010430860704700040440024B1868C0080123184070475C
:4016C0000404044004490A68D2B210239A430001184010430860704700040440024B186800090123184070470404044004490A68D2B220239A434001184010430860704775
:4017000000040440024B186840090123184070470404044010B500F01CFE044A136801218B43136000F019FE10BDC046000020400004000C014B18607047C046080120409D
:401740000004000C014B18607047C046140120400004000C014B18607047C0460C01204070B504000D0000F0F4FDAC40024B1C6000F0F3FD70BDC0460800204010B500F069
:40178000E8FD064A116801230B43136000F0E5FD18210120FFF7E4FF10BDC04600002040014B18607047C0463801204010B50E4C8023DB042360236823600020FFF7B8FF45
:4017C000236823600C22094B1A600120FFF7E8FF3122074B1A60074C2000FFF7B1FF2000FFF7B6FF10BDC046000120402401204028012040FFFF000010B5064B1B78002BCA
:4018000004D1FFF7D3FF0122024B1A70FFF7B6FF10BDC04625040020044A1368DBB201218B430840184310607047C04600020440024B1B68012018407047C046040204409E
:4018400004490A68D2B202239A434000184010430860704700020440024B186840080123184070470402044004490A68D2B204239A4380001840104308607047000204406A
:40188000024B186880080123184070470402044004490A68D2B208239A43C000184010430860704700020440024B1868C0080123184070470402044004490A68D2B21023B3
:4018C0009A430001184010430860704700020440024B186800090123184070470402044004490A68D2B220239A434001184010430860704700020440024B186840090123B9
:40190000184070470402044004490A68D2B240239A438001184010430860704700020440024B186880090123184070470402044004490A68D2B210239A4300011840104368
:401940000860704700030440024B186800090123184070470403044004490A68D2B220239A434001184010430860704700030440024B186840090123184070470403044064
:4019800004490A68D2B208239A43C000184010430860704700000440024B1868C0080123184070470400044004490A68D2B204239A43800018401043086070470000044029
:4019C000024B186880080123184070470400044004490A68D2B202239A434000184010430860704700000440024B1868400801231840704704000440044A1368DBB201217C
:401A00008B430840184310607047C04600000440024B1B68012018407047C046040004408823014AD05070470000002010B5040000F08FFC044A1168044B0B40A4051C43DC
:401A4000146000F08AFC10BD10E400E0FFFF3FFF8022D202014B1A607047C04600E100E08022D202014B1A607047C04680E100E010B50400FFF7F4FF2000FFF7D1FF0320F0
:401A8000FFF7D4FFFFF7E4FF10BDC04600230AE00D4A12683F210A400C49C95C8A4201D1033303E001332D2BF2D9032308490868084A02400A60084A944663441B78DBB2C9
:401AC000064A13607047C0462CFF0B40E03D000000002240FFFFFFBF4DF3FF0F28FF0B40034B18688023DB05184000D0012070470000224030B52D4B1A783F231340042B6F
:401B000001D9012000E0002000230AE0284A12683F210A402749C95C8A4201D1033303E001332D2BF2D9032323490A680124A2430A60224A126822490A6000280FD02149C0
:401B40000D681F4C65601F24A2431F4C247822431A4C22601D4A1278D2B20A6005E01F218A4317390A4315490A60302B0BD1002803D0174B1B78DBB202E0164B1B78DBB2F7
:401B8000154A13600CE0182B0AD1002803D0134B1B78DBB202E0124B1B78DBB20E4A1360104A116802230B43136030BD00F3FF0F2CFF0B40E03D000050000C4034FF0B4052
:401BC0002804002020FF0B40C0F1FF0FC1F1FF0FC3F1FF0F3FF3FF0F28FF0B40C2F1FF0F3EF3FF0F24002C4030B51A4B1A783F231340042B01D9012000E0002000230AE0E4
:401C0000154A12683F210A401449C95C8A4201D1033303E001332D2BF2D9032310490A680224A2430A600F4C21681F2291430E4D2D682A400A432260002803D00A4A516801
:401C40000A4A11600A4A944663441B78DBB2094A136030BD00F3FF0F2CFF0B40E03D000024002C4034FF0B402804002020FF0B404DF3FF0F28FF0B40034B1B680220184094
:401C800000D001207047C04624002C401F2318401E3B8340014A13607047C04600E100E001BE704770B504000D000F2802D90020FFF7F6FFA40080239B059C466444206832
:401CC000256070BD70B504000D001F2802D90020FFF7E6FF1034A40080239B059C4664442068256070BDC04610B5040006E0084B586800F025FB074B9C46644480231B027C
:401D00009C42F4D8024B9868604300F019FB10BD800200200080FFFF70B582B000F004FA002862D000F015FB0500314A116801230B43136000230AE02E4A12683F210A40F2
:401D40002D49C95C8A4201D1033303E001332D2BF2D903230021294A1160294A1268D20606D1274802681F318A4313390A430260244C2168244A1140244A5A438023DB01C0
:401D80009C466244D20B013A5205520D0B001343A0225203134323601D4B1B680193302000F08CFB1B4A13688021C9050B4313602668194B1E40002407E00120FFF794FF21
:401DC0001034A30533430F4A1360EE2CF5D90120FFF78AFFFF239B051E430A4B1E60019A0B4B1A60280000F0B8FA02B070BDC04650000C402CFF0B40E03D000028FF0B407C
:401E000034FF0B400800224000F800C040420F003000104000002240FFFF3FC010B5034B1B7B584300F08CFA10BDC04680020020F0B55F4656464D464446F0B483B0040085
:401E400000F087FA0190FFF74BFE002804D0FFF71DFE01239A4601E000239A46FFF70CFF002808D0182C01D0302C07D1FFF7BCFE01239B4604E000239B4601E000239B4660
:401E8000E61E2D2E74D8464B1B78DBB29C4208D8444B1B78DBB29946434B1B78DBB2984631E0424B1B78DBB29C4208D8404B1B78DBB299463F4B1B78DBB2984623E03E4BD4
:401EC0001B78DBB29C4208D83C4B1B78DBB299463B4B1B78DBB2984615E03A4B1B78DBB29C4208D8384B1B78DBB29946374B1B78DBB2984607E0364B1B78DBB29946354BB9
:401F00001B78DBB29846344B9F5D2F2F09D92A2C07D91922314B1A60052000F011FA192503E02E4B1D683F231D40BD4206D92A4B9A5D2A4B1A60052000F002FA254B9C46E7
:401F400064442378DBB2264A1360264B4A461A60254B42461A600520FFF760FFBD420AD21D4B9A5D1D4B1A60052000F0E9F902E00020FFF795FE5346012B01D1FFF7CCFE52
:401F80005B46012B01D1FFF7B5FD019800F0E5F903B03CBC90469946A246AB46F0BDC04640F3FF0F41F3FF0F42F3FF0F43F3FF0F44F3FF0F45F3FF0F46F3FF0F47F3FF0F63
:401FC00048F3FF0F49F3FF0F4AF3FF0F4BF3FF0F4CF3FF0F4DF3FF0FE03D00002CFF0B4028FF0B401CFF0B4020FF0B40024A116802230B431360704710E000E010B5FFF75A
:40200000F5FF034A116801230B43136010BDC04610E000E0024A136802218B431360704710E000E00002000A014B18607047C04614E000E0012805D1054A116804230B430F
:40204000136004E0024A136804218B431360704710E000E0024B1868000C01231840704710E000E010B5FFF7F5FF01280CD108E0A300064AD3189B68002B00D098470134EC
:4020800000E00024042CF3D910BDC046280400200022014B1A60704718E000E010B5002305E09A000C498A18002191600133042BF7D90A490F20FFF7F5FD0120FFF7BAFFAD
:4020C000074B1869FA21890001F0C2FAFFF7AAFFFFF7DEFF10BDC04628040020652000008002002010B5064BDB69002B04D1FFF7D5FF0122024BDA61FFF780FF10BDC046ED
:40210000280400208000024B1B1898689960704728040020034B1868C0231B02184000D00120704700010B40034B1B68002B01DA012000E0002070470000224010B500F077
:4021400008F9044A1368C02109020B43136000F004F910BD00010B4010B500F0FAF808490A68084B1A408024E40122430A600A6813408022120213430B6000F0EEF810BD94
:4021800000010B40FF3FFFFF10B50400022802D90020FFF785FD044B1868E4000134E0400123184010BDC04610020B4010B504000C4A136803431360C30704D50020FFF771
:4021C000E3FF0028FAD0E30504D50120FFF7DCFF0028FAD0E30304D50220FFF7D5FF0028FAD010BD10020B4010B50400FFF792FF002818D10C4A1368A3431360E30704D551
:402200000020FFF7C1FF0028FAD1E30504D50120FFF7BAFF0028FAD1E30304D50220FFF7B3FF0028FAD110BD10020B4070B5050000F08FF80400FFF76DFF002803D0FFF7B3
:402240008BFF012100E0002108482840084A1568084B2B40184310601368012901D1FFF76DFF200000F079F870BDC0460404040010020B40FBFBFBFF054A1168054B18404B
:4022800008431060024B1A68024B1A42FAD1704710020B400808080010B5244B1B685B0715D5234B5B685B070ED5224B596A042001401F4C62688A4362605A6A82435A62DD
:4022C0009B69002B00D098470420FFF7AFFF174B1B685B0518D5164B5B685B0510D5154B596A8022D2001140114842688A434260596A114A0A405A62DB69002B00D0984701
:402300008020C000FFF792FF084B1B685B030CD5074B5B685B0304D5064B1B6A002B00D098478020C002FFF781FF10BD10020B409402002048040020FFFBFFFF0000000089
:402340000230800803D00138FDD1C046C046C0467047EFF3108072B6704780F310887047044B1A68044B1B78044909685B00D1527047C0463C090020DC3D00000C0028404F
:4023800010B5204B1B785B011F4AD3181A7E013A1E4B1B78DBB29A421BD91C4A13780133DBB21370174803785B011749CB189C681378DBB29900CB1859006118144B19608E
:4023C0000078C0B21178C9B2FFF70CF8FEF74EFF16E000220D4B1A700E4AD1680E4B0B40D3600E4B1B78012B02D1FEF76DFD07E0084BDA6880218A43DA601A8901321A8172
:4024000010BDC04622040020283D0000230400203C090020BC080020FFFFFEFF2104002010B50122094B1A60FFF79AFF084B1B68084A1343084A1360084B1A8901321A8102
:40244000D968074A0A40DA6010BDC04614002840740200202008E88104002840BC0800207FFFFEFF10B50E4B1B785B010D4A9C580D4B1A78D2B2D1008A1A9300E418012218
:402480000A4B1A60FFF76CFF094B1B68094A1343094A13602000FEF7B7FFFFF771FF10BD22040020283D00002304002014002840740200202008E8810400284070B504007E
:4024C000FFF747FF0500102C05D8104A136803218B43136016E0202C07D80C490B6803229343023A13430B600CE0302C07D807490B6803229343013A13430B6002E0002084
:40250000FFF7CEFB2800FFF728FF70BD3000104090B585B000AF78607B689B881A007B68DB895343FA2292005A4314007B689A897B681B691B881900100001F089F80300DF
:402540009BB21900200001F083F803001A007B681B7E5A437B685B881900100001F078F80300FB60FB681800BD4605B090BDC04680B586B000AF786001233B617B68180052
:40258000FFF7C6FF0300FB607B681B881A00FB685A43FA239900100001F05AF803007B617B689B891A007B6953430D49180001F04FF803007B6105E07B695B087B613B69AE
:4025C0005B003B617B69002BF6D17B681B693A6992B21A80FB681800BD4606B080BDC04600E1F50590B589B000AF786001237B611F23FB1810221A707B681B7E1A007B6845
:402600009B8853433B617B689A897B681B691B881900100001F01CF803009BB2FB607B685B881A0013001B049B1A3969180001F00FF803001A00FB685343BB61BB69224922
:40264000180001F005F803001A007B68DB8853430A21180000F0FCFF0300BB617B689B681A4A934211D902237B610EE01F23FB181F22BA181278013A1A70BB695B08BB61BC
:402680001F23FB181B78062B06D97B6964225A43BB699A42EAD300E0C0467B685C69BA6913009B009B181A01D31A6421180000F0CFFF03009BB223801F23FB181B781800F6
:4026C000BD4609B090BDC046A0860100A761000080B586B000AFF860B9603B60BB1D1A801223FB18BA1D12881A803B68002B04D11623FB1800221A8004E01623FB18BA68B4
:4027000012881A80FB681B889B009BB21222BA1812889A4206D91423FB181222BA1812881A8005E0FB681A881423FB1892001A801423FA181623FB1812881B889A4205D9AC
:402740001623FB181422BA1812881A80BB681622BA1812881A801623FB181B885B089BB2FF2B06D9BB68FF229A70BB68FF22DA700FE01623FB181B885B089BB2DAB2BB68AF
:402780009A701623FB181B885B089BB2DAB2BB68DA701623FB181B88DB089BB2FF2B03D9BB68FF221A7107E01623FB181B88DB089BB2DAB2BB681A71C046BD4606B080BD47
:4027C00080B582B000AF3A60BB1D021C1A803B1D0A1C1A803B1D1B889B089AB23B681A803B1D1B88DB089AB23B685A803B68BA1D12889A803B68BA1D1288DA803B68BA1D9D
:4028000012881A813B680F229A723B680022DA72C046BD4602B080BD80B584B000AF3A60BB1D021C1A803B1D0A1C1A80BB1D1B883A6892889B1AFB603B68BA1D12889A80AB
:402840003B689B7ADB18DAB23B689A72FB68002B08DA3B689B7A0133DAB23B689A72FB685B42FB603B689B7A0F221340DAB23B689A723B685B881A00FB689A420AD93B68A4
:402880005B88012B0CD93B685B88013B9AB23B685A8005E03B685B8801339AB23B685A803B689B7A0F2B09D03B689B7A002B05D03B685B889A00FB689A420BD23B68BA1DF8
:4028C0001288DA803B68BA1D12881A813B680022DA7247E03B68DB88BA1D12889A4204D23B68BA1D1288DA8009E03B681B89BA1D12889A4203D93B68BA1D12881A813B68BB
:40290000DB7A092B06D83B68DB7A0133DAB23B68DA7227E03B6819893B68DA880A23FB188A1A1A803B685B880A22BA1812889A420ED23B685A883B1D1B889B089BB29A4294
:402940000CD93B685B88013B9AB23B685A8005E03B685B8801339AB23B685A803B685A883B681A80C046BD4604B080BD70B506000D0082B0FDF7A0FC054C6368019398473A
:40298000236801939847034B5E805D60FEE7C0465C39000040090020F0B54D465F4656464446F0B483B09A460CAB1F780DAB1B780D0090469946FF2A49D0434601AEB37095
:4029C000324B30701C687570F770002C0BD04423E35C4422AB4203D10DE0A35CAB420AD06468002CF9D1002003B03CBC90469946A246AB46F0BD2369002B23D0FDF75CFCA5
:402A0000234B9B465A469B88D2889B1A3A1D934236D34B46002B20D14B46F370002F29D104223100584600F08BFAA38CE28C01339BB2A384111C9A4200D2191CE184FDF75E
:402A40002DFCD0E74346FF2BD8D0FF20CCE78842FBD1002FB1D0FF20C6E704223100584600F04EFA002FE0D0BAB25146584600F047FADAE7BAB25146584600F061FACFE7F6
:402A80004346290419430348FFF770FF700400207001002037020000C36870B504000D00002B0BD0FDF708FC0648A5602100183000F094FAFDF7F2FB002070BD01006120AD
:402AC000FFF754FF7004002010B50400FDF7F4FB00230548A3602100183000F0A5FAFDF7DDFB002010BDC0467004002070B505000E00FDF7E1FB6C7BFF2C0AD00648290024
:402B00002430AE6000F06AFA0024FDF7C7FB200070BDFDF7C3FBFAE770040020F0B5304D83B02E002B6BE96801332B630C36002905D10EE0300000F077FA211E09D08B689A
:402B40004C68002BF6D0013B8B60002BF2D0211EF5D12F00AC691837002C0CD115E0E368002B31D0206998476668A06000282CD03400002C09D0A368002BF0D0013BA360C7
:402B8000002BECD06468002CF5D16C6A243500262F00002C0CD115E0A27B617B207B002301960096FFF7F8FE002814D02C1E09D0A3686568002BEFD0013BA360002BEBD008
:402BC0002C1EF5D103B0F0BD66682100380000F02BFA3400CDE72100380000F025FAE5E770040020452370B5C45C0500002C02D0FF24200070BDFDF75FFB4423EA5CFF2A35
:402C000009D02900074800F0E9F9FDF747FBAB6828009847EDE704490A78013AD2B20A70EA54EEE7700400209C02002030B583B0002906D0826AFF23002A04D0180003B0F2
:402C400030BDFF23FAE744243C25045D44550135445501354355C03BC2543E3B816282852100019300920023FF322000FFF794FE0023E3E7FF23002902D0826A914201D0B3
:402C800018007047FE3B83850023F9E7F0B583B01F0004000D001600FDF710FB0300FF20012B09D0054B2A00587801230097019321003300FFF770FE03B0F0BD480900209B
:402CC00009490A4810B50431343000F0DBF9084C23689847A3689847064800F0EBF8064B186800F0A9FB10BD9C020020700400205C39000070010020B8040020F0B55F4675
:402D000056464D464446F0B4474B83B09A465B68442700939847454B98461B6800939847434B444D9946444B444E9B4602E0F388002B0BD16C682B689C43F8D153461B68FF
:402D4000009398472C60F388002BF3D0FDF7B4FA04224946300000F0B3F84B46DA78002A3DD1FDF79BFA5B461C68002CE2D04B465A78E35D934205D06468002CDAD0E35DF4
:402D80009342F9D14B461B7893422ED02369002B21D043469B68009398475946086BC8634146496801918847236920009C46E047009A90475B461A6BDB6B0198D31A5A4649
:402DC000D36380475B46228C9B8F9A4203D223844B469B786384A38C013BA384AAE792B21749300000F06CF8BBE74B469B78FF2BCCD1A36A002BEED0210020002C319847AF
:402E0000002801D1A062E6E7012805D0010020003030FFF76BFEDEE7E05D00230022FF21FFF734FFD7E7C0465C390000683900004809002060030020700400207001002048
:402E40004C090020F8B51E0006AB8C1A1D88A4B20700AC420BD2036830009918220000F0AFFC30192A1B396800F0AAFCF8BD0168300089182A0000F0A3FCF7E7F8B51E00CF
:402E800006AB891A1D888CB20700AC420BD2036831009818220000F093FC38682A1B311900F08EFCF8BD0068310080182A0000F087FCF7E70023C380438103817047C046A7
:402EC00030B51500040083B00B00028981880095FFF7B8FFE3889D420DD25B1BE3802389A288EB189BB22381934201D39B1A2381280003B030BD0023E38063892381F7E736
:402F000030B51500040083B00B00428981880095FFF7B4FF6389A288EB189BB26381934201D39B1A6381E388EB189BB29A4205D26389E2802381280003B030BDE380FAE74B
:402F400030B51500028983B00B00954211D98188C4885218521B2C1992B2A4B20281A14210D2C18042810095FFF788FF280003B030BDC488521B2C19818892B2A4B2028178
:402F8000A142EED3C480EEE710B50A0000E01A001368002BFBD10468A24214D00A00002C01D113E01A001368002BFBD194420AD023684C600B602368002B05D059608368DD
:402FC00021600133836010BD0160F8E783680160013341600C604C608360F4E770B50A0000E01A001368002BFBD10568AA4215D044680A00002C01D113E01A001368002BF5
:40300000FBD195420AD063680C604B606368002B05D01960836861600133836070BD4160F8E7FFF7B1FFF9E70A0000E01A001368002BFBD103689A4200D070470B684A688E
:40304000002B0BD05A604A68002A09D0136000230B604B608368013B8360EEE70260F3E74360F4E770B5040000680D00002803D000F0E8FA854203D02900200000F0CAFA94
:4030800070BDC0460B6810B5002B00D010BDFFF7E9FFFBE77047C046F0B5474600228B5E80B40C00002B07D0572B05D0002300200B8004BC9046F0BDC6698569306800F0D4
:4030C0009BF92B68070043401FD003422FD0337B6B7200236B60337B9846002B12D073689C461B68834238D00822002306E06046110080580831874231D00A000133DBB23D
:403100004345F4D12F60B0680EE06B7A327BB0689A4209D06A68DB0012186A607268944663441979002927D157232380C1E76B7A327B9342E6D07168DB008C4663445979BE
:40314000002903D100236A726B60DBE72A1D287A0423FFF79BFD327BF4E7002200236B7273689C46624411790029CBD02A1D287A0423FFF78BFDC5E72A1D287A0423FFF78D
:4031800085FDB068D0E7C04670B50400C56986690B490C48FFF776FF2369002163610A4B2868236100F008F9286800F025F9074930602000FFF73AFD01224523E25470BDDB
:4031C000A8020020A4040020953000009930000010B504000449FFF74DFD23694522636100232361A35410BD99300000F8B585682B7E002B11D0002400260127002120006C
:403200006B699847002802D03B00A3401E432B7E0134A342F2DC3000F8BD0026FBE7C0460300002210B59C68DB6840681A70FFF74BFC63689847002010BDC04670B585688F
:403240004668094904000948FFF71CFF2B6898472B699847697E3000FFF71EFC0122E36800201A7070BDC046B0020020A404002010B58468A3689847002803D1E368984736
:4032800023699847607E10BD0022C36800201A707047C04610B583681A7A1B68002A03D198474342584110BD9847FCE710B58368187A002902D142425041C0B25B6898478C
:4032C000002010BD10B5040004490548FFF7DAFE0122E36800201A7010BDC046B8020020A4040020002110B5C268836811715B689847002010BDC046436898687047C046A9
:40330000436858687047C04610B5040004490548FFF7B8FE0122E36800201A7110BDC046C0020020A4040020436870B504000D00002B02D08368002B00D170BD0B6898477C
:403340006168206800F084F9AB68984764212368A06858436368594300F07AF9EB689847EBE7C04610B5FF23642901D9180010BD8268436899601368002904D19B685B6816
:4033800098470023F2E799685868FFF7CDFF0023ECE7C0468368426810B51B685160002904D19B685B689847002010BD99685868FFF7BAFFF8E7C04610B5031E09D0026817
:4033C000002A06D01268FF20002A01D01800904710BDFF20FCE7C04610B5031E09D00268002A06D05268FF20002A01D01800904710BDFF20FCE7C04610B5031E09D002688B
:40340000002A06D09268FF20002A01D01800904710BDFF20FCE7C04610B5031E09D00268002A06D0D268FF20002A01D01800904710BDFF20FCE7C04610B5031E09D002684A
:40344000002A06D01268FF20002A01D01800904710BDFF20FCE7C046F8B587683E79013E14D300207400A4193B68A4001B191A7A904005001868FFF7BFFF3B681A19526882
:403480000C3C10402843013EF0D2F8BD0020FCE7F8B587680E003B79002B20D03B68002505E0127A0135D6403A79AA4217DD6C006419A4001859FFF79FFF3B6870401A19A7
:4034C00051680142EDD031401068FFF7A5FF3B6801351A19127AD6403A79AA42E7DC0020F8BDC046002270B5C36885681A702B790024002B0BD063001B192A689B0098583A
:40350000FFF76AFF01342B79E4B2A342F3D8002070BDC04670B5856806000D490D48FFF7B1FD2B790024002B0CD063001B192A689B0098580021FFF73FFF01342B79E4B20C
:40354000A342F2D80122F36800201A7070BDC046C8020020A40400200020704770B500254468C36820001D70FFF7AEFA6561A561002070BD70B54468866820000D00FFF751
:40358000A3FA002D0BD029686561A561E069FFF743FFA3695968002906D1002070BD3168E069FFF739FFF8E72000FFF775FAF4E770B54468866805000B490C48FFF762FD5E
:4035C0002000FFF781FA002300216361A361E069FFF7F2FE3168E069FFF71EFF0122EB6800201A7070BDC046D0020020A404002010B54468A2691300D2680833A3610132C2
:4036000001D16369A3611968E069FFF705FFA369586810BD0368002B0CD01A68002A01D10EE01A001368002BFBD1436811600133436004E00B604368016001334360704745
:403640001A00F2E700E018000368002BFBD17047002243088B4274D303098B425FD3030A8B4244D3030B8B4228D3030C8B420DD3FF22090212BA030C8B4202D3121209025F
:4036800065D0030B8B4219D300E0090AC30B8B4201D3CB03C01A5241830B8B4201D38B03C01A5241430B8B4201D34B03C01A5241030B8B4201D30B03C01A5241C30A8B42D9
:4036C00001D3CB02C01A5241830A8B4201D38B02C01A5241430A8B4201D34B02C01A5241030A8B4201D30B02C01A5241CDD2C3098B4201D3CB01C01A524183098B4201D352
:403700008B01C01A524143098B4201D34B01C01A524103098B4201D30B01C01A5241C3088B4201D3CB00C01A524183088B4201D38B00C01A524143088B4201D34B00C01AEB
:403740005241411A00D20146524110467047FFE701B5002000F006F802BDC0460029F7D076E770477047C046014B18687047C046380300200E4B70B500251E000D4CE41A76
:40378000A410A54204D0AB00F35898470135F8E700F0BEFB084B00251E00084CE41AA410A54204D0AB00F35898470135F8E770BD1C3F00001C3F00001C3F0000243F000025
:4037C000002310B59A4203D0CC5CC4540133F9E710BD03008218934202D019700133FAE77047000000000000F03700000038000070736F63342F706C6174666F726D00009C
:40380000322E302E32000000003F0006005B004F0066006D007D0007007F006F063F0606065B064F0666066D067D0607067F066F0077007C0039000F0058004C005E00793E
:403840000071003D006F007600740056003000100004000E00000038000E00000054003F005C007300670050006D0078003E0037001C0023000000000000006E00000677B6
:40388000067C0639060F0658064C065E06790671063D066F067606740656063006100604060E06000638060E06000654063F065C067306670650066D0678063E0637061C85
:4038C0000623060006000600066E06000000000089030000FD020000090300000D030000020105060D0E0A09030004070C0F0B0845040000F103000001040000FD030000B2
:40390000743E000000000000503900005C030020743E000000000000843B0000AC030020D43E000000000000483A000088030020D0380000F40100203C3A00008403002014
:40394000F038000070030020BC3900006C030020B51600009D16000000000000BD050000C9050000D5050000A9050000ED1F0000152000008C3C000084390000320000007A
:4039800004000000040000000506000002000000070A0000010000000B0E0000010000000B0E00008C3C000000000000F43E0000D4010020A839000068030020203A0000F8
:4039C000043A0000E8390000CC390000743E000000000000DC39000074030020111A0000F919000000000000743E000000000000F839000078030020E9190000D11900005E
:403A000000000000743E000000000000143A00007C030020C1190000A919000000000000743E000000000000303A00008003002099190000811900000000000020390000E7
:403A4000C03A0000A43A0000503A000007000000103900000100000001000000683B000001000000010000004C3B00000100000001000000303B00000100000001000000F7
:403A8000143B00000100000001000000F83A00000100000001000000DC3A00000100000001000000743E000000000000B43A00008C0300207119000059190000000000001E
:403AC000743E000000000000D03A000090030020491900003119000000000000743E000000000000EC3A000094030020211900000919000001000000743E0000000000000D
:403B0000083B000098030020F9180000E118000001000000743E000000000000243B00009C030020D1180000B918000001000000743E000000000000403B0000A003002001
:403B4000A91800009118000001000000743E0000000000005C3B0000A4030020811800006918000001000000743E000000000000783B0000A80300205918000041180000B5
:403B800001000000311800001918000001000000D43E000000000000A03B0000B0030020A83B000003000000043C00000100000001000000E83B000001000000010000007C
:403BC000CC3B00000100000001000000743E000000000000DC3B0000B403002005170000ED16000000000000743E000000000000F83B0000B8030020DD160000C51600006F
:403C000000000000743E000000000000143C0000BC030020B51600009D16000000000000A83E000054020020303C0000C0030020503C000054020020983E0000540200202C
:403C4000483C0000C4030020503C000054020020B83E000054020020603C0000C8030020F9170000151700004117000051170000DD07000011080000890D0000210800002C
:403C8000050E0000950A0000030200004C3E000060020020703C0000D003002000300F40000800400F400008B80ABE05D804DF0118A0B4505F08D6809F0813089F08C4108D
:403CC0005020D40438049004B424CE02EC0A000004320F4001330F4001350F4002400F4001410F4003420F4002450F4005460F400C00640028280A031E2004000000840305
:403D000000000C00640028280A031E2004000000840300000C00640028280A031E2004000000840300000000883D0000DC08002012090020E40300201804002001280000E7
:403D40000100010104040020A43D0000EE0800201C090020DC030020140400200128000001000101F8030020C03D00000009002026090020D4030020100400200128000095
:403D800001000101EC03002000070240080704400007044004070440F00000000200000004010300000702400807044000070440040704400F00000001000000000000007B
:403DC000000402400804044000040440040404400000000F400000001806120000000000030405060708090A0B0C0E0F101112131415161718191B1C1D1E1F2021222325A9
:403E0000262728292A2B2E2F3031323334350000183E0000243E000052436F53436F726500000000322E302E31000000343E00003C3E0000627574746F6E7300322E302EC3
:403E4000300000005C3E00003C3E00003D32000021320000ED3100000000000070736F63342F63617073656E73650000843E00003C3E0000C53200008932000095320000FF
:403E8000AD32000070736F63342F6770696F0000C03E00003C3E0000000000000000000001330000953300000000000000000000F93200006533000009330000E5320000D2
:403EC00070736F63342F70776D000000E43E00003C3E000015350000E53400005934000091340000696F636F6D620000043F00003C3E0000B13500005D35000059350000C9
:403F0000753500007061747465726E0043000000F8B5C046F8BC08BC9E4670476502000069070000F8B5C046F8BC08BC9E4670473D020000483F0000C0000020800200000B
:403F400010070000000000000000000000000000E8370000000000000000000089310000D131000000000000000000007C0100207439000000000000000000000000000005
:403F800000000000000000000000000000000000FFFFFF0000000000FF0000000000000000000000A1040000FD040000000000000000000088010020A439000000000000D9
:403FC0000000000000000000000000000000000000000000000000000000FF000000000000000000000000000000000000000000E105000000000000BC04002000040000F8
:404000000000000000000000000000000004000000000000000000000000000000000000000000000000000000000000000001000000000000000000000000000000040077
:404040000000000000000000903B0000203C0000AC3900003039000040390000000000000000000000000000F1350000AC3900000000000000000000383C000000000000D3
:404080000000000000000000FFFF0100000000000C0200200000000000000000A1030000D90300000000000000000000F40100203C3A0000000000000000000000000000C8
:4040C00000000000000000000000000000000000FFFFFF0000000000FF00000040420F000000000032000000000000000000000000000000713200008C3C00004008C0018D
:404100000000FF0F01000100010000000000C05D80BB000030000000006CDC02F000000004040400FF00000000000000103E0000000000002C3E000000000000443E000067
:40414000000000006C3E000000000000903E000000000000CC3E000000000000EC3E0000000000000000000000000000000000000000000000000000000000000000000093
:404180000C3F0000000000000000000000000000000000000000000000000000000000000000000000000000000000000000000000000000000000000000000000000000B4
:4041C000D8020020000000000000000000000000000000000000000000000000000000000000000000000000000000000000000000000000000000000000000000000000C5
:40420000000000000000000000000000000000000000000000000000000000000000000000000000000000000000000000000000000000000000000000000000000000007E
:40424000000000000000000000000000000000000000000000000000000000000000000000000000000000000000000000000000000000000000000000000000000000003E
:4042800000000000000000000000000000000000000000000000000000000000000000000000000000000000000000000000000000000000000000000000000000000000FE
:4042C00000000000000000000000000000000000000000000000000000000000000000000000000000000000000000000000000000000000000000000000000000000000BE
:020000040003F7
:0200000490303A
:02000000BEFE42
:0200000490402A
:4000000000000000000000000000000000000000000000000000000000000000000000000000000000000000000000000000000000000000000000000000000000000000C0
:400040000000000000000000000000000000000000000000000000000000000000000000000000000000000000000000000000000000000000000000000000000000000080
:0200000490501A
:0C0000000002100E11A000011022D09E82
:0200000490600A
:0100000001FE
:00000001FF